{
  "address": "0x15282dFE2d973645d36590fBfA2c821a9866CC3A",
  "abi": [
    {
      "inputs": [
        {
          "internalType": "address",
          "name": "_owner",
          "type": "address"
        },
        {
          "internalType": "address",
          "name": "_userContractTemplate",
          "type": "address"
        }
      ],
      "stateMutability": "nonpayable",
      "type": "constructor"
    },
    {
      "inputs": [],
      "name": "ContractCreationFailed",
      "type": "error"
    },
    {
      "inputs": [],
      "name": "FailedDeployment",
      "type": "error"
    },
    {
      "inputs": [
        {
          "internalType": "uint256",
          "name": "balance",
          "type": "uint256"
        },
        {
          "internalType": "uint256",
          "name": "needed",
          "type": "uint256"
        }
      ],
      "name": "InsufficientBalance",
      "type": "error"
    },
    {
      "inputs": [],
      "name": "InvalidSubscriptionContract",
      "type": "error"
    },
    {
      "inputs": [],
      "name": "InvalidTemplateAddress",
      "type": "error"
    },
    {
      "inputs": [],
      "name": "InvalidUserAddress",
      "type": "error"
    },
    {
      "inputs": [
        {
          "internalType": "address",
          "name": "owner",
          "type": "address"
        }
      ],
      "name": "OwnableInvalidOwner",
      "type": "error"
    },
    {
      "inputs": [
        {
          "internalType": "address",
          "name": "account",
          "type": "address"
        }
      ],
      "name": "OwnableUnauthorizedAccount",
      "type": "error"
    },
    {
      "inputs": [],
      "name": "UnauthorizedCaller",
      "type": "error"
    },
    {
      "inputs": [],
      "name": "UserAlreadyHasContract",
      "type": "error"
    },
    {
      "anonymous": false,
      "inputs": [
        {
          "indexed": false,
          "internalType": "uint256",
          "name": "oldVersion",
          "type": "uint256"
        },
        {
          "indexed": false,
          "internalType": "uint256",
          "name": "newVersion",
          "type": "uint256"
        }
      ],
      "name": "FactoryVersionUpdated",
      "type": "event"
    },
    {
      "anonymous": false,
      "inputs": [
        {
          "indexed": true,
          "internalType": "address",
          "name": "previousOwner",
          "type": "address"
        },
        {
          "indexed": true,
          "internalType": "address",
          "name": "newOwner",
          "type": "address"
        }
      ],
      "name": "OwnershipTransferred",
      "type": "event"
    },
    {
      "anonymous": false,
      "inputs": [
        {
          "indexed": true,
          "internalType": "address",
          "name": "oldContract",
          "type": "address"
        },
        {
          "indexed": true,
          "internalType": "address",
          "name": "newContract",
          "type": "address"
        }
      ],
      "name": "SubscriptionContractUpdated",
      "type": "event"
    },
    {
      "anonymous": false,
      "inputs": [
        {
          "indexed": true,
          "internalType": "address",
          "name": "user",
          "type": "address"
        },
        {
          "indexed": true,
          "internalType": "address",
          "name": "userContract",
          "type": "address"
        },
        {
          "indexed": false,
          "internalType": "uint256",
          "name": "subscriptionId",
          "type": "uint256"
        },
        {
          "indexed": false,
          "internalType": "uint256",
          "name": "timestamp",
          "type": "uint256"
        }
      ],
      "name": "UserContractCreated",
      "type": "event"
    },
    {
      "anonymous": false,
      "inputs": [
        {
          "indexed": true,
          "internalType": "address",
          "name": "oldTemplate",
          "type": "address"
        },
        {
          "indexed": true,
          "internalType": "address",
          "name": "newTemplate",
          "type": "address"
        }
      ],
      "name": "UserContractTemplateUpdated",
      "type": "event"
    },
    {
      "inputs": [
        {
          "internalType": "address",
          "name": "contractAddress",
          "type": "address"
        }
      ],
      "name": "checkIsUserContract",
      "outputs": [
        {
          "internalType": "bool",
          "name": "",
          "type": "bool"
        }
      ],
      "stateMutability": "view",
      "type": "function"
    },
    {
      "inputs": [
        {
          "internalType": "address",
          "name": "",
          "type": "address"
        }
      ],
      "name": "contractOwners",
      "outputs": [
        {
          "internalType": "address",
          "name": "",
          "type": "address"
        }
      ],
      "stateMutability": "view",
      "type": "function"
    },
    {
      "inputs": [
        {
          "internalType": "address",
          "name": "user",
          "type": "address"
        },
        {
          "internalType": "uint256",
          "name": "subscriptionId",
          "type": "uint256"
        }
      ],
      "name": "createUserContract",
      "outputs": [
        {
          "internalType": "address",
          "name": "",
          "type": "address"
        }
      ],
      "stateMutability": "nonpayable",
      "type": "function"
    },
    {
      "inputs": [],
      "name": "factoryVersion",
      "outputs": [
        {
          "internalType": "uint256",
          "name": "",
          "type": "uint256"
        }
      ],
      "stateMutability": "view",
      "type": "function"
    },
    {
      "inputs": [],
      "name": "getFactoryInfo",
      "outputs": [
        {
          "internalType": "address",
          "name": "_subscriptionContract",
          "type": "address"
        },
        {
          "internalType": "address",
          "name": "_userContractTemplate",
          "type": "address"
        },
        {
          "internalType": "uint256",
          "name": "_totalUserContracts",
          "type": "uint256"
        },
        {
          "internalType": "uint256",
          "name": "_factoryVersion",
          "type": "uint256"
        }
      ],
      "stateMutability": "view",
      "type": "function"
    },
    {
      "inputs": [],
      "name": "getTotalUserContracts",
      "outputs": [
        {
          "internalType": "uint256",
          "name": "",
          "type": "uint256"
        }
      ],
      "stateMutability": "view",
      "type": "function"
    },
    {
      "inputs": [
        {
          "internalType": "address",
          "name": "user",
          "type": "address"
        }
      ],
      "name": "getUserContract",
      "outputs": [
        {
          "internalType": "address",
          "name": "",
          "type": "address"
        }
      ],
      "stateMutability": "view",
      "type": "function"
    },
    {
      "inputs": [
        {
          "internalType": "address",
          "name": "",
          "type": "address"
        }
      ],
      "name": "isUserContract",
      "outputs": [
        {
          "internalType": "bool",
          "name": "",
          "type": "bool"
        }
      ],
      "stateMutability": "view",
      "type": "function"
    },
    {
      "inputs": [],
      "name": "owner",
      "outputs": [
        {
          "internalType": "address",
          "name": "",
          "type": "address"
        }
      ],
      "stateMutability": "view",
      "type": "function"
    },
    {
      "inputs": [],
      "name": "renounceOwnership",
      "outputs": [],
      "stateMutability": "nonpayable",
      "type": "function"
    },
    {
      "inputs": [
        {
          "internalType": "address",
          "name": "_subscriptionContract",
          "type": "address"
        }
      ],
      "name": "setSubscriptionContract",
      "outputs": [],
      "stateMutability": "nonpayable",
      "type": "function"
    },
    {
      "inputs": [
        {
          "internalType": "address",
          "name": "_template",
          "type": "address"
        }
      ],
      "name": "setUserContractTemplate",
      "outputs": [],
      "stateMutability": "nonpayable",
      "type": "function"
    },
    {
      "inputs": [],
      "name": "subscriptionContract",
      "outputs": [
        {
          "internalType": "address",
          "name": "",
          "type": "address"
        }
      ],
      "stateMutability": "view",
      "type": "function"
    },
    {
      "inputs": [],
      "name": "totalUserContracts",
      "outputs": [
        {
          "internalType": "uint256",
          "name": "",
          "type": "uint256"
        }
      ],
      "stateMutability": "view",
      "type": "function"
    },
    {
      "inputs": [
        {
          "internalType": "address",
          "name": "newOwner",
          "type": "address"
        }
      ],
      "name": "transferOwnership",
      "outputs": [],
      "stateMutability": "nonpayable",
      "type": "function"
    },
    {
      "inputs": [
        {
          "internalType": "uint256",
          "name": "_newVersion",
          "type": "uint256"
        }
      ],
      "name": "upgradeFactoryVersion",
      "outputs": [],
      "stateMutability": "nonpayable",
      "type": "function"
    },
    {
      "inputs": [],
      "name": "userContractTemplate",
      "outputs": [
        {
          "internalType": "address",
          "name": "",
          "type": "address"
        }
      ],
      "stateMutability": "view",
      "type": "function"
    },
    {
      "inputs": [
        {
          "internalType": "address",
          "name": "",
          "type": "address"
        }
      ],
      "name": "userContracts",
      "outputs": [
        {
          "internalType": "address",
          "name": "",
          "type": "address"
        }
      ],
      "stateMutability": "view",
      "type": "function"
    }
  ],
  "transactionHash": "0x627662c1b669a4675ae102d5a5d5bf8cfc1d1b48003f522a5acd18ee862f7f97",
  "args": [
    "0x0020cE4969A6Ec50885E083784A495483Db7A62c",
    "0xC6572AE923F70B296bcf3dab0A0D2f92856c90c6"
  ],
  "numDeployments": 2,
  "solcInputHash": "8a6b92aacc6c19ab6237de5bef309908",
  "bytecode": "0x608060405260016007553480156200001657600080fd5b506040516200100c3803806200100c833981016040819052620000399162000238565b816001600160a01b0381166200006957604051631e4fbdf760e01b81526000600482015260240160405180910390fd5b620000748162000140565b506001600160a01b0381166200009d57604051633a8e6d6760e21b815260040160405180910390fd5b600280546001600160a01b0319166001600160a01b03831617905560408051808201909152601c81527f436f6e7472616374466163746f7279206465706c6f7965642062793a000000006020820152620000f8908362000190565b60408051808201909152601781527f5573657220636f6e74726163742074656d706c6174653a000000000000000000602082015262000138908262000190565b5050620002d2565b600080546001600160a01b038381166001600160a01b0319831681178455604051919092169283917f8be0079c531659141344cd1fd0a4f28419497f9722a3daafe3b4186f6b6457e09190a35050565b620001dd8282604051602401620001a992919062000270565b60408051601f198184030181529190526020810180516001600160e01b0390811663319af33360e01b17909152620001e116565b5050565b620001f781620001fa60201b620008581760201c565b50565b60006a636f6e736f6c652e6c6f679050600080835160208501845afa505050565b80516001600160a01b03811681146200023357600080fd5b919050565b600080604083850312156200024c57600080fd5b62000257836200021b565b915062000267602084016200021b565b90509250929050565b604081526000835180604084015260005b81811015620002a0576020818701810151606086840101520162000281565b50600060608285018101919091526001600160a01b03949094166020840152601f01601f191690910190910192915050565b610d2a80620002e26000396000f3fe608060405234801561001057600080fd5b50600436106101165760003560e01c8063715018a6116100a2578063a895af9d11610071578063a895af9d146102bb578063d4130486146102ce578063eac7f501146102d7578063f2fde38b146102ea578063fc72fb05146102fd57600080fd5b8063715018a61461023f578063782be8dd146102475780637e6c75f21461027e5780638da5cb5b146102aa57600080fd5b8063545204fe116100e9578063545204fe1461018f578063597211c2146101a457806369e2d90d146101d75780636d55b6e9146101ea5780636f9404e21461021357600080fd5b80630687b7851461011b5780630d12670714610161578063385e43a51461017357806343b793e81461017c575b600080fd5b610144610129366004610af2565b6003602052600090815260409020546001600160a01b031681565b6040516001600160a01b0390911681526020015b60405180910390f35b6006545b604051908152602001610158565b61016560065481565b61014461018a366004610b14565b610310565b6101a261019d366004610af2565b6105a2565b005b6101c76101b2366004610af2565b60056020526000908152604090205460ff1681565b6040519015158152602001610158565b600154610144906001600160a01b031681565b6101446101f8366004610af2565b6004602052600090815260409020546001600160a01b031681565b6101c7610221366004610af2565b6001600160a01b031660009081526005602052604090205460ff1690565b6101a261067a565b600154600254600654600754604080516001600160a01b039586168152949093166020850152918301526060820152608001610158565b61014461028c366004610af2565b6001600160a01b039081166000908152600360205260409020541690565b6000546001600160a01b0316610144565b600254610144906001600160a01b031681565b61016560075481565b6101a26102e5366004610b3e565b61068e565b6101a26102f8366004610af2565b61073d565b6101a261030b366004610af2565b610780565b6001546000906001600160a01b0316331461033e57604051635c427cd960e01b815260040160405180910390fd5b826001600160a01b03811661036657604051630702b3d960e41b815260040160405180910390fd5b6001600160a01b03848116600090815260036020526040902054161561039f576040516311195c9f60e11b815260040160405180910390fd5b6002546000906103b7906001600160a01b0316610879565b90506001600160a01b0381166103e05760405163a28c247360e01b815260040160405180910390fd5b60405163cd6dc68760e01b81526001600160a01b0386811660048301526024820186905282169063cd6dc68790604401600060405180830381600087803b15801561042a57600080fd5b505af115801561043e573d6000803e3d6000fd5b5050506001600160a01b03808716600081815260036020908152604080832080549588166001600160a01b03199687168117909155835260048252808320805490951690931790935560059092528120805460ff19166001179055600680549250906104a983610b57565b91905055506104ed6040518060400160405280601a81526020017f43726561746564207573657220636f6e747261637420666f723a0000000000008152508661088c565b6105206040518060400160405280601181526020017021b7b73a3930b1ba1030b2323932b9b99d60791b8152508261088c565b6105526040518060400160405280601081526020016f29bab139b1b934b83a34b7b71024a21d60811b815250856108d5565b604080518581524260208201526001600160a01b0380841692908816917f45349e2095e00937c73fd00c2f23d04377f0c7774413f24e207d73d53abf71c3910160405180910390a3949350505050565b6105aa61091a565b806001600160a01b0381166105d257604051630702b3d960e41b815260040160405180910390fd5b600180546001600160a01b038481166001600160a01b03198316179092556040805160608101909152602380825292909116916106359190610cd2602083013982604051806040016040528060038152602001623a379d60e91b81525086610947565b826001600160a01b0316816001600160a01b03167fdec3e22549497092c5ecf3cc485014c3f846a80fc9e442a7fc43ecdfb57a482460405160405180910390a3505050565b61068261091a565b61068c6000610996565b565b61069661091a565b60006007549050816007819055506107006040518060400160405280601e81526020017f557067726164656420666163746f72792076657273696f6e2066726f6d3a000081525082604051806040016040528060038152602001623a379d60e91b815250856109e6565b60408051828152602081018490527f9f417795d705fffb1992fc9203f3628f771ed7407129255dbe0b964e072e2d3c910160405180910390a15050565b61074561091a565b6001600160a01b03811661077457604051631e4fbdf760e01b8152600060048201526024015b60405180910390fd5b61077d81610996565b50565b61078861091a565b806001600160a01b0381166107b057604051630702b3d960e41b815260040160405180910390fd5b600280546001600160a01b038481166001600160a01b03198316179092556040805160608101909152602480825292909116916108139190610cae602083013982604051806040016040528060038152602001623a379d60e91b81525086610947565b826001600160a01b0316816001600160a01b03167f23d1e0de8b5b8b75d9dbd21a490a40181372ac1769185b178e98f3cf10ca6a0060405160405180910390a3505050565b60006a636f6e736f6c652e6c6f679050600080835160208501845afa505050565b6000610886826000610a2f565b92915050565b6108d182826040516024016108a2929190610bc4565b60408051601f198184030181529190526020810180516001600160e01b031663319af33360e01b179052610ac5565b5050565b6108d182826040516024016108eb929190610bee565b60408051601f198184030181529190526020810180516001600160e01b0316632d839cb360e21b179052610ac5565b6000546001600160a01b0316331461068c5760405163118cdaa760e01b815233600482015260240161076b565b610990848484846040516024016109619493929190610c10565b60408051601f198184030181529190526020810180516001600160e01b031663aabc9a3160e01b179052610ac5565b50505050565b600080546001600160a01b038381166001600160a01b0319831681178455604051919092169283917f8be0079c531659141344cd1fd0a4f28419497f9722a3daafe3b4186f6b6457e09190a35050565b61099084848484604051602401610a009493929190610c5a565b60408051601f198184030181529190526020810180516001600160e01b031663c67ea9d160e01b179052610ac5565b600081471015610a5b5760405163cf47918160e01b81524760048201526024810183905260440161076b565b763d602d80600a3d3981f3363d3d373d3d3d363d730000008360601b60e81c176000526e5af43d82803e903d91602b57fd5bf38360781b176020526037600983f090506001600160a01b0381166108865760405163b06ebf3d60e01b815260040160405180910390fd5b61077d81610858565b61068c610c97565b80356001600160a01b0381168114610aed57600080fd5b919050565b600060208284031215610b0457600080fd5b610b0d82610ad6565b9392505050565b60008060408385031215610b2757600080fd5b610b3083610ad6565b946020939093013593505050565b600060208284031215610b5057600080fd5b5035919050565b600060018201610b7757634e487b7160e01b600052601160045260246000fd5b5060010190565b6000815180845260005b81811015610ba457602081850181015186830182015201610b88565b506000602082860101526020601f19601f83011685010191505092915050565b604081526000610bd76040830185610b7e565b905060018060a01b03831660208301529392505050565b604081526000610c016040830185610b7e565b90508260208301529392505050565b608081526000610c236080830187610b7e565b6001600160a01b0386811660208501528382036040850152610c458287610b7e565b92508085166060850152505095945050505050565b608081526000610c6d6080830187610b7e565b8560208401528281036040840152610c858186610b7e565b91505082606083015295945050505050565b634e487b7160e01b600052605160045260246000fdfe55706461746564207573657220636f6e74726163742074656d706c6174652066726f6d3a5570646174656420737562736372697074696f6e20636f6e74726163742066726f6d3aa2646970667358221220b1df49b8589222f499b78671260bf39824ecd213b49b29fdd83e76d37b73a82164736f6c63430008140033",
  "devdoc": {
    "author": "BuidlGuidl",
    "errors": {
      "FailedDeployment()": [
        {
          "details": "The deployment failed."
        }
      ],
      "InsufficientBalance(uint256,uint256)": [
        {
          "details": "The ETH balance of the account is not enough to perform the operation."
        }
      ],
      "OwnableInvalidOwner(address)": [
        {
          "details": "The owner is not a valid owner account. (eg. `address(0)`)"
        }
      ],
      "OwnableUnauthorizedAccount(address)": [
        {
          "details": "The caller account is not authorized to perform an operation."
        }
      ]
    },
    "kind": "dev",
    "methods": {
      "checkIsUserContract(address)": {
        "params": {
          "contractAddress": "Address to check"
        },
        "returns": {
          "_0": "True if it's a user contract"
        }
      },
      "constructor": {
        "params": {
          "_owner": "Owner of the factory contract",
          "_userContractTemplate": "Address of the user contract template"
        }
      },
      "createUserContract(address,uint256)": {
        "params": {
          "subscriptionId": "Subscription ID from subscription contract",
          "user": "Address of the user"
        },
        "returns": {
          "_0": "Address of the created user contract"
        }
      },
      "getFactoryInfo()": {
        "returns": {
          "_factoryVersion": "Factory version",
          "_subscriptionContract": "Subscription contract address",
          "_totalUserContracts": "Total number of user contracts",
          "_userContractTemplate": "User contract template address"
        }
      },
      "getTotalUserContracts()": {
        "returns": {
          "_0": "Total number of user contracts"
        }
      },
      "getUserContract(address)": {
        "params": {
          "user": "Address of the user"
        },
        "returns": {
          "_0": "Address of the user's contract"
        }
      },
      "owner()": {
        "details": "Returns the address of the current owner."
      },
      "renounceOwnership()": {
        "details": "Leaves the contract without owner. It will not be possible to call `onlyOwner` functions. Can only be called by the current owner. NOTE: Renouncing ownership will leave the contract without an owner, thereby disabling any functionality that is only available to the owner."
      },
      "setSubscriptionContract(address)": {
        "params": {
          "_subscriptionContract": "Address of the subscription contract"
        }
      },
      "setUserContractTemplate(address)": {
        "params": {
          "_template": "Address of the user contract template"
        }
      },
      "transferOwnership(address)": {
        "details": "Transfers ownership of the contract to a new account (`newOwner`). Can only be called by the current owner."
      },
      "upgradeFactoryVersion(uint256)": {
        "params": {
          "_newVersion": "New factory version"
        }
      }
    },
    "version": 1
  },
  "userdoc": {
    "kind": "user",
    "methods": {
      "checkIsUserContract(address)": {
        "notice": "Check if address is a user contract"
      },
      "constructor": {
        "notice": "Constructor"
      },
      "createUserContract(address,uint256)": {
        "notice": "Create a new user contract for a user Only callable by subscription contract"
      },
      "getFactoryInfo()": {
        "notice": "Get factory information"
      },
      "getTotalUserContracts()": {
        "notice": "Get total number of user contracts created"
      },
      "getUserContract(address)": {
        "notice": "Get user contract address"
      },
      "setSubscriptionContract(address)": {
        "notice": "Set subscription contract address Only callable by owner"
      },
      "setUserContractTemplate(address)": {
        "notice": "Set user contract template address Only callable by owner"
      },
      "upgradeFactoryVersion(uint256)": {
        "notice": "Upgrade factory version Only callable by owner"
      }
    },
    "notice": "Contract Factory that creates individual user contracts for mental health AI assistant Uses minimal proxy pattern for gas efficiency",
    "version": 1
  },
  "storageLayout": {
    "storage": [
      {
        "astId": 8,
        "contract": "contracts/ContractFactory.sol:ContractFactory",
        "label": "_owner",
        "offset": 0,
        "slot": "0",
        "type": "t_address"
      },
      {
        "astId": 707,
        "contract": "contracts/ContractFactory.sol:ContractFactory",
        "label": "subscriptionContract",
        "offset": 0,
        "slot": "1",
        "type": "t_address"
      },
      {
        "astId": 709,
        "contract": "contracts/ContractFactory.sol:ContractFactory",
        "label": "userContractTemplate",
        "offset": 0,
        "slot": "2",
        "type": "t_address"
      },
      {
        "astId": 713,
        "contract": "contracts/ContractFactory.sol:ContractFactory",
        "label": "userContracts",
        "offset": 0,
        "slot": "3",
        "type": "t_mapping(t_address,t_address)"
      },
      {
        "astId": 717,
        "contract": "contracts/ContractFactory.sol:ContractFactory",
        "label": "contractOwners",
        "offset": 0,
        "slot": "4",
        "type": "t_mapping(t_address,t_address)"
      },
      {
        "astId": 721,
        "contract": "contracts/ContractFactory.sol:ContractFactory",
        "label": "isUserContract",
        "offset": 0,
        "slot": "5",
        "type": "t_mapping(t_address,t_bool)"
      },
      {
        "astId": 723,
        "contract": "contracts/ContractFactory.sol:ContractFactory",
        "label": "totalUserContracts",
        "offset": 0,
        "slot": "6",
        "type": "t_uint256"
      },
      {
        "astId": 726,
        "contract": "contracts/ContractFactory.sol:ContractFactory",
        "label": "factoryVersion",
        "offset": 0,
        "slot": "7",
        "type": "t_uint256"
      }
    ],
    "types": {
      "t_address": {
        "encoding": "inplace",
        "label": "address",
        "numberOfBytes": "20"
      },
      "t_bool": {
        "encoding": "inplace",
        "label": "bool",
        "numberOfBytes": "1"
      },
      "t_mapping(t_address,t_address)": {
        "encoding": "mapping",
        "key": "t_address",
        "label": "mapping(address => address)",
        "numberOfBytes": "32",
        "value": "t_address"
      },
      "t_mapping(t_address,t_bool)": {
        "encoding": "mapping",
        "key": "t_address",
        "label": "mapping(address => bool)",
        "numberOfBytes": "32",
        "value": "t_bool"
      },
      "t_uint256": {
        "encoding": "inplace",
        "label": "uint256",
        "numberOfBytes": "32"
      }
    }
  }
}