{
  "address": "0xd850394CfC6cD17138b31eE8b3d618658d3bD9C6",
  "abi": [
    {
      "inputs": [
        {
          "internalType": "address",
          "name": "_owner",
          "type": "address"
        }
      ],
      "stateMutability": "nonpayable",
      "type": "constructor"
    },
    {
      "anonymous": false,
      "inputs": [
        {
          "indexed": true,
          "internalType": "address",
          "name": "owner",
          "type": "address"
        },
        {
          "indexed": false,
          "internalType": "uint256",
          "name": "amount",
          "type": "uint256"
        },
        {
          "indexed": false,
          "internalType": "uint256",
          "name": "timestamp",
          "type": "uint256"
        }
      ],
      "name": "FundsWithdrawn",
      "type": "event"
    },
    {
      "anonymous": false,
      "inputs": [
        {
          "indexed": false,
          "internalType": "uint256",
          "name": "newPrice",
          "type": "uint256"
        },
        {
          "indexed": false,
          "internalType": "uint256",
          "name": "timestamp",
          "type": "uint256"
        }
      ],
      "name": "PriceUpdated",
      "type": "event"
    },
    {
      "anonymous": false,
      "inputs": [
        {
          "indexed": true,
          "internalType": "address",
          "name": "subscriber",
          "type": "address"
        },
        {
          "indexed": false,
          "internalType": "uint256",
          "name": "timestamp",
          "type": "uint256"
        }
      ],
      "name": "SubscriptionCancelled",
      "type": "event"
    },
    {
      "anonymous": false,
      "inputs": [
        {
          "indexed": true,
          "internalType": "address",
          "name": "subscriber",
          "type": "address"
        },
        {
          "indexed": false,
          "internalType": "uint256",
          "name": "amount",
          "type": "uint256"
        },
        {
          "indexed": false,
          "internalType": "uint256",
          "name": "timestamp",
          "type": "uint256"
        }
      ],
      "name": "SubscriptionPurchased",
      "type": "event"
    },
    {
      "inputs": [],
      "name": "cancelSubscription",
      "outputs": [],
      "stateMutability": "nonpayable",
      "type": "function"
    },
    {
      "inputs": [],
      "name": "getBalance",
      "outputs": [
        {
          "internalType": "uint256",
          "name": "",
          "type": "uint256"
        }
      ],
      "stateMutability": "view",
      "type": "function"
    },
    {
      "inputs": [
        {
          "internalType": "address",
          "name": "_user",
          "type": "address"
        }
      ],
      "name": "getSubscriptionCount",
      "outputs": [
        {
          "internalType": "uint256",
          "name": "",
          "type": "uint256"
        }
      ],
      "stateMutability": "view",
      "type": "function"
    },
    {
      "inputs": [
        {
          "internalType": "address",
          "name": "_user",
          "type": "address"
        }
      ],
      "name": "getSubscriptionTime",
      "outputs": [
        {
          "internalType": "uint256",
          "name": "",
          "type": "uint256"
        }
      ],
      "stateMutability": "view",
      "type": "function"
    },
    {
      "inputs": [
        {
          "internalType": "address",
          "name": "_user",
          "type": "address"
        }
      ],
      "name": "isUserSubscribed",
      "outputs": [
        {
          "internalType": "bool",
          "name": "",
          "type": "bool"
        }
      ],
      "stateMutability": "view",
      "type": "function"
    },
    {
      "inputs": [],
      "name": "owner",
      "outputs": [
        {
          "internalType": "address",
          "name": "",
          "type": "address"
        }
      ],
      "stateMutability": "view",
      "type": "function"
    },
    {
      "inputs": [
        {
          "internalType": "uint256",
          "name": "_newPrice",
          "type": "uint256"
        }
      ],
      "name": "setSubscriptionPrice",
      "outputs": [],
      "stateMutability": "nonpayable",
      "type": "function"
    },
    {
      "inputs": [],
      "name": "subscribe",
      "outputs": [],
      "stateMutability": "payable",
      "type": "function"
    },
    {
      "inputs": [
        {
          "internalType": "address",
          "name": "",
          "type": "address"
        }
      ],
      "name": "subscribers",
      "outputs": [
        {
          "internalType": "bool",
          "name": "",
          "type": "bool"
        }
      ],
      "stateMutability": "view",
      "type": "function"
    },
    {
      "inputs": [
        {
          "internalType": "address",
          "name": "",
          "type": "address"
        }
      ],
      "name": "subscriptionCount",
      "outputs": [
        {
          "internalType": "uint256",
          "name": "",
          "type": "uint256"
        }
      ],
      "stateMutability": "view",
      "type": "function"
    },
    {
      "inputs": [],
      "name": "subscriptionPrice",
      "outputs": [
        {
          "internalType": "uint256",
          "name": "",
          "type": "uint256"
        }
      ],
      "stateMutability": "view",
      "type": "function"
    },
    {
      "inputs": [
        {
          "internalType": "address",
          "name": "",
          "type": "address"
        }
      ],
      "name": "subscriptionTimestamp",
      "outputs": [
        {
          "internalType": "uint256",
          "name": "",
          "type": "uint256"
        }
      ],
      "stateMutability": "view",
      "type": "function"
    },
    {
      "inputs": [],
      "name": "totalSubscribers",
      "outputs": [
        {
          "internalType": "uint256",
          "name": "",
          "type": "uint256"
        }
      ],
      "stateMutability": "view",
      "type": "function"
    },
    {
      "inputs": [],
      "name": "withdraw",
      "outputs": [],
      "stateMutability": "nonpayable",
      "type": "function"
    },
    {
      "stateMutability": "payable",
      "type": "receive"
    }
  ],
  "transactionHash": "0x2dc021e7599a6ba10d03937771f80cdd52b57b593d50f85eed613f80cd36d5b3",
  "args": [
    "0x0020cE4969A6Ec50885E083784A495483Db7A62c"
  ],
  "numDeployments": 4,
  "solcInputHash": "0ca38ee668deff64367d07acd2026638",
  "bytecode": "0x60a0604052670de0b6b3a7640000600055600060015534801561002157600080fd5b50604051610dbf380380610dbf833981016040819052610040916100fa565b6001600160a01b038116608052604080516060810190915260218082526100709190610d9e602083013982610076565b5061018a565b6100bf828260405160240161008c92919061012a565b60408051601f198184030181529190526020810180516001600160e01b0390811663319af33360e01b179091526100c316565b5050565b6100d6816100d960201b6109b51760201c565b50565b60006a636f6e736f6c652e6c6f679050600080835160208501845afa505050565b60006020828403121561010c57600080fd5b81516001600160a01b038116811461012357600080fd5b9392505050565b604081526000835180604084015260005b81811015610158576020818701810151606086840101520161013b565b50600060608285018101919091526001600160a01b03949094166020840152601f01601f191690910190910192915050565b608051610bdd6101c16000396000818161029a015281816103b2015281816105660152818161060c01526106d60152610bdd6000f3fe6080604052600436106100e15760003560e01c8063714999691161007f5780638f449a05116100595780638f449a05146102d4578063abf0eb50146102dc578063bdc8e54c14610315578063d8d9f7401461032b57600080fd5b8063714999691461023b57806385fdba24146102685780638da5cb5b1461028857600080fd5b806324e9edb0116100bb57806324e9edb01461019b57806332d350f6146101b05780633ccfd60b146101e65780635745ae28146101fb57600080fd5b806312065fe01461014357806315e2475f146101655780631a5ee7791461017b57600080fd5b3661013e5761013c604051806040016040528060158152602001742932b1b2b4bb32b2102927a9a2903a37b5b2b7399d60591b8152503460405180604001604052806005815260200164333937b69d60d91b81525033610358565b005b600080fd5b34801561014f57600080fd5b50475b6040519081526020015b60405180910390f35b34801561017157600080fd5b5061015260015481565b34801561018757600080fd5b5061013c610196366004610a35565b6103a7565b3480156101a757600080fd5b5061013c6104a4565b3480156101bc57600080fd5b506101526101cb366004610a4e565b6001600160a01b031660009081526004602052604090205490565b3480156101f257600080fd5b5061013c61055b565b34801561020757600080fd5b5061022b610216366004610a4e565b60026020526000908152604090205460ff1681565b604051901515815260200161015c565b34801561024757600080fd5b50610152610256366004610a4e565b60046020526000908152604090205481565b34801561027457600080fd5b50610152610283366004610a4e565b610726565b34801561029457600080fd5b506102bc7f000000000000000000000000000000000000000000000000000000000000000081565b6040516001600160a01b03909116815260200161015c565b61013c6107a0565b3480156102e857600080fd5b5061022b6102f7366004610a4e565b6001600160a01b031660009081526002602052604090205460ff1690565b34801561032157600080fd5b5061015260005481565b34801561033757600080fd5b50610152610346366004610a4e565b60036020526000908152604090205481565b6103a1848484846040516024016103729493929190610ac4565b60408051601f198184030181529190526020810180516001600160e01b0316631f118ca960e21b1790526109d6565b50505050565b336001600160a01b037f000000000000000000000000000000000000000000000000000000000000000016146104145760405162461bcd60e51b815260206004820152600d60248201526c2737ba103a34329027bbb732b960991b60448201526064015b60405180910390fd5b600081116104645760405162461bcd60e51b815260206004820152601c60248201527f5072696365206d7573742062652067726561746572207468616e203000000000604482015260640161040b565b6000819055604080518281524260208201527f945c1c4e99aa89f648fbfe3df471b916f719e16d960fcec0737d4d56bd696838910160405180910390a150565b3360009081526002602052604090205460ff166104f45760405162461bcd60e51b815260206004820152600e60248201526d139bdd081cdd589cd8dc9a58995960921b604482015260640161040b565b336000908152600260205260408120805460ff19169055600180549091829161051e908390610b1f565b909155505060405142815233907f06aa12c0ad65927b4a753d119c26e490d3c4a4e11cb631b43131a709dc1e5917906020015b60405180910390a2565b336001600160a01b037f000000000000000000000000000000000000000000000000000000000000000016146105c35760405162461bcd60e51b815260206004820152600d60248201526c2737ba103a34329027bbb732b960991b604482015260640161040b565b47806106085760405162461bcd60e51b81526020600482015260146024820152734e6f2066756e647320746f20776974686472617760601b604482015260640161040b565b60007f00000000000000000000000000000000000000000000000000000000000000006001600160a01b03168260405160006040518083038185875af1925050503d8060008114610675576040519150601f19603f3d011682016040523d82523d6000602084013e61067a565b606091505b50509050806106bf5760405162461bcd60e51b815260206004820152601160248201527015da5d1a191c985dd85b0819985a5b1959607a1b604482015260640161040b565b604080518381524260208201526001600160a01b037f000000000000000000000000000000000000000000000000000000000000000016917ffbc3a599b784fe88772fc5abcc07223f64ca0b13acc341f4fb1e46bef0510eb4910160405180910390a25050565b6001600160a01b03811660009081526002602052604081205460ff166107845760405162461bcd60e51b8152602060048201526013602482015272155cd95c881b9bdd081cdd589cd8dc9a589959606a1b604482015260640161040b565b506001600160a01b031660009081526003602052604090205490565b6000543410156108065760405162461bcd60e51b815260206004820152602b60248201527f496e73756666696369656e74207061796d656e743a203120524f534520746f6b60448201526a195b881c995c5d5a5c995960aa1b606482015260840161040b565b61085f604051806040016040528060168152602001752732bb9039bab139b1b934b83a34b7b710333937b69d60511b815250336040518060400160405280600781526020016620b6b7bab73a1d60c91b815250346109e2565b3360009081526002602052604090205460ff1661088e5760018060008282546108889190610b38565b90915550505b336000908152600260209081526040808320805460ff1916600190811790915560038352818420429055600490925282208054919290916108d0908490610b38565b909155505060005434111561097b57600080546108ed9034610b1f565b604051909150600090339083908381818185875af1925050503d8060008114610932576040519150601f19603f3d011682016040523d82523d6000602084013e610937565b606091505b50509050806109785760405162461bcd60e51b815260206004820152600d60248201526c1499599d5b990819985a5b1959609a1b604482015260640161040b565b50505b6000546040805191825242602083015233917f6d458fa94cc5b30d7877bed127c2029f98bc0cbc4634dc7789b6bc804fbdae039101610551565b60006a636f6e736f6c652e6c6f679050600080835160208501845afa505050565b6109df816109b5565b50565b6103a1848484846040516024016109fc9493929190610b4b565b60408051601f198184030181529190526020810180516001600160e01b03166348e8889760e11b1790526109d6565b610a33610b91565b565b600060208284031215610a4757600080fd5b5035919050565b600060208284031215610a6057600080fd5b81356001600160a01b0381168114610a7757600080fd5b9392505050565b6000815180845260005b81811015610aa457602081850181015186830182015201610a88565b506000602082860101526020601f19601f83011685010191505092915050565b608081526000610ad76080830187610a7e565b8560208401528281036040840152610aef8186610a7e565b91505060018060a01b038316606083015295945050505050565b634e487b7160e01b600052601160045260246000fd5b81810381811115610b3257610b32610b09565b92915050565b80820180821115610b3257610b32610b09565b608081526000610b5e6080830187610a7e565b6001600160a01b03861660208401528281036040840152610b7f8186610a7e565b91505082606083015295945050505050565b634e487b7160e01b600052605160045260246000fdfea26469706673582212202c8e62763b07da846f80f2b4a84f9606b5334b853ecb3b99c500beacdf87ab8764736f6c63430008140033537562736372697074696f6e436f6e7472616374206465706c6f7965642062793a",
  "devdoc": {
    "author": "BuidlGuidl",
    "kind": "dev",
    "methods": {},
    "version": 1
  },
  "userdoc": {
    "kind": "user",
    "methods": {
      "cancelSubscription()": {
        "notice": "Function to cancel subscription No refund - subscription remains valid until cancellation"
      },
      "getBalance()": {
        "notice": "Get contract balance"
      },
      "getSubscriptionCount(address)": {
        "notice": "Get subscription count for a user"
      },
      "getSubscriptionTime(address)": {
        "notice": "Get subscription timestamp for a user"
      },
      "isUserSubscribed(address)": {
        "notice": "Check if an address is subscribed"
      },
      "setSubscriptionPrice(uint256)": {
        "notice": "Owner function to update subscription price"
      },
      "subscribe()": {
        "notice": "Function to subscribe to the service Users can subscribe multiple times to extend their subscription Requires exactly 1 ROSE token payment per subscription"
      },
      "withdraw()": {
        "notice": "Owner function to withdraw collected subscription fees"
      }
    },
    "notice": "A smart contract that handles subscription payments in ROSE tokens Users pay 1 ROSE token to subscribe to the service",
    "version": 1
  },
  "storageLayout": {
    "storage": [
      {
        "astId": 8,
        "contract": "contracts/SubscriptionContract.sol:SubscriptionContract",
        "label": "subscriptionPrice",
        "offset": 0,
        "slot": "0",
        "type": "t_uint256"
      },
      {
        "astId": 11,
        "contract": "contracts/SubscriptionContract.sol:SubscriptionContract",
        "label": "totalSubscribers",
        "offset": 0,
        "slot": "1",
        "type": "t_uint256"
      },
      {
        "astId": 15,
        "contract": "contracts/SubscriptionContract.sol:SubscriptionContract",
        "label": "subscribers",
        "offset": 0,
        "slot": "2",
        "type": "t_mapping(t_address,t_bool)"
      },
      {
        "astId": 19,
        "contract": "contracts/SubscriptionContract.sol:SubscriptionContract",
        "label": "subscriptionTimestamp",
        "offset": 0,
        "slot": "3",
        "type": "t_mapping(t_address,t_uint256)"
      },
      {
        "astId": 23,
        "contract": "contracts/SubscriptionContract.sol:SubscriptionContract",
        "label": "subscriptionCount",
        "offset": 0,
        "slot": "4",
        "type": "t_mapping(t_address,t_uint256)"
      }
    ],
    "types": {
      "t_address": {
        "encoding": "inplace",
        "label": "address",
        "numberOfBytes": "20"
      },
      "t_bool": {
        "encoding": "inplace",
        "label": "bool",
        "numberOfBytes": "1"
      },
      "t_mapping(t_address,t_bool)": {
        "encoding": "mapping",
        "key": "t_address",
        "label": "mapping(address => bool)",
        "numberOfBytes": "32",
        "value": "t_bool"
      },
      "t_mapping(t_address,t_uint256)": {
        "encoding": "mapping",
        "key": "t_address",
        "label": "mapping(address => uint256)",
        "numberOfBytes": "32",
        "value": "t_uint256"
      },
      "t_uint256": {
        "encoding": "inplace",
        "label": "uint256",
        "numberOfBytes": "32"
      }
    }
  }
}