{
  "address": "0xEF439FBFc73232d9368Af87D91ecaFB0FA221373",
  "abi": [
    {
      "inputs": [
        {
          "internalType": "address",
          "name": "_owner",
          "type": "address"
        }
      ],
      "stateMutability": "nonpayable",
      "type": "constructor"
    },
    {
      "anonymous": false,
      "inputs": [
        {
          "indexed": true,
          "internalType": "address",
          "name": "owner",
          "type": "address"
        },
        {
          "indexed": false,
          "internalType": "uint256",
          "name": "amount",
          "type": "uint256"
        },
        {
          "indexed": false,
          "internalType": "uint256",
          "name": "timestamp",
          "type": "uint256"
        }
      ],
      "name": "FundsWithdrawn",
      "type": "event"
    },
    {
      "anonymous": false,
      "inputs": [
        {
          "indexed": false,
          "internalType": "uint256",
          "name": "newPrice",
          "type": "uint256"
        },
        {
          "indexed": false,
          "internalType": "uint256",
          "name": "timestamp",
          "type": "uint256"
        }
      ],
      "name": "PriceUpdated",
      "type": "event"
    },
    {
      "anonymous": false,
      "inputs": [
        {
          "indexed": true,
          "internalType": "address",
          "name": "subscriber",
          "type": "address"
        },
        {
          "indexed": false,
          "internalType": "uint256",
          "name": "timestamp",
          "type": "uint256"
        }
      ],
      "name": "SubscriptionCancelled",
      "type": "event"
    },
    {
      "anonymous": false,
      "inputs": [
        {
          "indexed": true,
          "internalType": "address",
          "name": "subscriber",
          "type": "address"
        },
        {
          "indexed": false,
          "internalType": "uint256",
          "name": "amount",
          "type": "uint256"
        },
        {
          "indexed": false,
          "internalType": "uint256",
          "name": "timestamp",
          "type": "uint256"
        }
      ],
      "name": "SubscriptionPurchased",
      "type": "event"
    },
    {
      "inputs": [],
      "name": "cancelSubscription",
      "outputs": [],
      "stateMutability": "nonpayable",
      "type": "function"
    },
    {
      "inputs": [],
      "name": "getBalance",
      "outputs": [
        {
          "internalType": "uint256",
          "name": "",
          "type": "uint256"
        }
      ],
      "stateMutability": "view",
      "type": "function"
    },
    {
      "inputs": [
        {
          "internalType": "address",
          "name": "_user",
          "type": "address"
        }
      ],
      "name": "getSubscriptionTime",
      "outputs": [
        {
          "internalType": "uint256",
          "name": "",
          "type": "uint256"
        }
      ],
      "stateMutability": "view",
      "type": "function"
    },
    {
      "inputs": [
        {
          "internalType": "address",
          "name": "_user",
          "type": "address"
        }
      ],
      "name": "isUserSubscribed",
      "outputs": [
        {
          "internalType": "bool",
          "name": "",
          "type": "bool"
        }
      ],
      "stateMutability": "view",
      "type": "function"
    },
    {
      "inputs": [],
      "name": "owner",
      "outputs": [
        {
          "internalType": "address",
          "name": "",
          "type": "address"
        }
      ],
      "stateMutability": "view",
      "type": "function"
    },
    {
      "inputs": [
        {
          "internalType": "uint256",
          "name": "_newPrice",
          "type": "uint256"
        }
      ],
      "name": "setSubscriptionPrice",
      "outputs": [],
      "stateMutability": "nonpayable",
      "type": "function"
    },
    {
      "inputs": [],
      "name": "subscribe",
      "outputs": [],
      "stateMutability": "payable",
      "type": "function"
    },
    {
      "inputs": [
        {
          "internalType": "address",
          "name": "",
          "type": "address"
        }
      ],
      "name": "subscribers",
      "outputs": [
        {
          "internalType": "bool",
          "name": "",
          "type": "bool"
        }
      ],
      "stateMutability": "view",
      "type": "function"
    },
    {
      "inputs": [],
      "name": "subscriptionPrice",
      "outputs": [
        {
          "internalType": "uint256",
          "name": "",
          "type": "uint256"
        }
      ],
      "stateMutability": "view",
      "type": "function"
    },
    {
      "inputs": [
        {
          "internalType": "address",
          "name": "",
          "type": "address"
        }
      ],
      "name": "subscriptionTimestamp",
      "outputs": [
        {
          "internalType": "uint256",
          "name": "",
          "type": "uint256"
        }
      ],
      "stateMutability": "view",
      "type": "function"
    },
    {
      "inputs": [],
      "name": "totalSubscribers",
      "outputs": [
        {
          "internalType": "uint256",
          "name": "",
          "type": "uint256"
        }
      ],
      "stateMutability": "view",
      "type": "function"
    },
    {
      "inputs": [],
      "name": "withdraw",
      "outputs": [],
      "stateMutability": "nonpayable",
      "type": "function"
    },
    {
      "stateMutability": "payable",
      "type": "receive"
    }
  ],
  "transactionHash": "0x0a6ce42b7f4b01286313bd8327a80baa085391697b23430fed4e670d5a7e9b31",
  "args": [
    "0x0020cE4969A6Ec50885E083784A495483Db7A62c"
  ],
  "numDeployments": 2,
  "solcInputHash": "f65bdaeb698825e4d772771c89bc45ec",
  "bytecode": "0x60a0604052670de0b6b3a7640000600055600060015534801561002157600080fd5b50604051610d45380380610d45833981016040819052610040916100fa565b6001600160a01b038116608052604080516060810190915260218082526100709190610d24602083013982610076565b5061018a565b6100bf828260405160240161008c92919061012a565b60408051601f198184030181529190526020810180516001600160e01b0390811663319af33360e01b179091526100c316565b5050565b6100d6816100d960201b61093b1760201c565b50565b60006a636f6e736f6c652e6c6f679050600080835160208501845afa505050565b60006020828403121561010c57600080fd5b81516001600160a01b038116811461012357600080fd5b9392505050565b604081526000835180604084015260005b81811015610158576020818701810151606086840101520161013b565b50600060608285018101919091526001600160a01b03949094166020840152601f01601f191690910190910192915050565b608051610b636101c16000396000818161020101528181610319015281816104cd01528181610573015261063d0152610b636000f3fe6080604052600436106100ab5760003560e01c806385fdba241161006457806385fdba24146101cf5780638da5cb5b146101ef5780638f449a051461023b578063abf0eb5014610243578063bdc8e54c1461027c578063d8d9f7401461029257600080fd5b806312065fe01461010d57806315e2475f1461012f5780631a5ee7791461014557806324e9edb0146101655780633ccfd60b1461017a5780635745ae281461018f57600080fd5b3661010857610106604051806040016040528060158152602001742932b1b2b4bb32b2102927a9a2903a37b5b2b7399d60591b8152503460405180604001604052806005815260200164333937b69d60d91b815250336102bf565b005b600080fd5b34801561011957600080fd5b50475b6040519081526020015b60405180910390f35b34801561013b57600080fd5b5061011c60015481565b34801561015157600080fd5b506101066101603660046109bb565b61030e565b34801561017157600080fd5b5061010661040b565b34801561018657600080fd5b506101066104c2565b34801561019b57600080fd5b506101bf6101aa3660046109d4565b60026020526000908152604090205460ff1681565b6040519015158152602001610126565b3480156101db57600080fd5b5061011c6101ea3660046109d4565b61068d565b3480156101fb57600080fd5b506102237f000000000000000000000000000000000000000000000000000000000000000081565b6040516001600160a01b039091168152602001610126565b610106610707565b34801561024f57600080fd5b506101bf61025e3660046109d4565b6001600160a01b031660009081526002602052604090205460ff1690565b34801561028857600080fd5b5061011c60005481565b34801561029e57600080fd5b5061011c6102ad3660046109d4565b60036020526000908152604090205481565b610308848484846040516024016102d99493929190610a4a565b60408051601f198184030181529190526020810180516001600160e01b0316631f118ca960e21b17905261095c565b50505050565b336001600160a01b037f0000000000000000000000000000000000000000000000000000000000000000161461037b5760405162461bcd60e51b815260206004820152600d60248201526c2737ba103a34329027bbb732b960991b60448201526064015b60405180910390fd5b600081116103cb5760405162461bcd60e51b815260206004820152601c60248201527f5072696365206d7573742062652067726561746572207468616e2030000000006044820152606401610372565b6000819055604080518281524260208201527f945c1c4e99aa89f648fbfe3df471b916f719e16d960fcec0737d4d56bd696838910160405180910390a150565b3360009081526002602052604090205460ff1661045b5760405162461bcd60e51b815260206004820152600e60248201526d139bdd081cdd589cd8dc9a58995960921b6044820152606401610372565b336000908152600260205260408120805460ff191690556001805490918291610485908390610aa5565b909155505060405142815233907f06aa12c0ad65927b4a753d119c26e490d3c4a4e11cb631b43131a709dc1e5917906020015b60405180910390a2565b336001600160a01b037f0000000000000000000000000000000000000000000000000000000000000000161461052a5760405162461bcd60e51b815260206004820152600d60248201526c2737ba103a34329027bbb732b960991b6044820152606401610372565b478061056f5760405162461bcd60e51b81526020600482015260146024820152734e6f2066756e647320746f20776974686472617760601b6044820152606401610372565b60007f00000000000000000000000000000000000000000000000000000000000000006001600160a01b03168260405160006040518083038185875af1925050503d80600081146105dc576040519150601f19603f3d011682016040523d82523d6000602084013e6105e1565b606091505b50509050806106265760405162461bcd60e51b815260206004820152601160248201527015da5d1a191c985dd85b0819985a5b1959607a1b6044820152606401610372565b604080518381524260208201526001600160a01b037f000000000000000000000000000000000000000000000000000000000000000016917ffbc3a599b784fe88772fc5abcc07223f64ca0b13acc341f4fb1e46bef0510eb4910160405180910390a25050565b6001600160a01b03811660009081526002602052604081205460ff166106eb5760405162461bcd60e51b8152602060048201526013602482015272155cd95c881b9bdd081cdd589cd8dc9a589959606a1b6044820152606401610372565b506001600160a01b031660009081526003602052604090205490565b3360009081526002602052604090205460ff161561075c5760405162461bcd60e51b8152602060048201526012602482015271105b1c9958591e481cdd589cd8dc9a58995960721b6044820152606401610372565b6000543410156107c25760405162461bcd60e51b815260206004820152602b60248201527f496e73756666696369656e74207061796d656e743a203120524f534520746f6b60448201526a195b881c995c5d5a5c995960aa1b6064820152608401610372565b61081b604051806040016040528060168152602001752732bb9039bab139b1b934b83a34b7b710333937b69d60511b815250336040518060400160405280600781526020016620b6b7bab73a1d60c91b81525034610968565b336000908152600260209081526040808320805460ff1916600190811790915560039092528220429055805490918291610856908390610abe565b909155505060005434111561090157600080546108739034610aa5565b604051909150600090339083908381818185875af1925050503d80600081146108b8576040519150601f19603f3d011682016040523d82523d6000602084013e6108bd565b606091505b50509050806108fe5760405162461bcd60e51b815260206004820152600d60248201526c1499599d5b990819985a5b1959609a1b6044820152606401610372565b50505b6000546040805191825242602083015233917f6d458fa94cc5b30d7877bed127c2029f98bc0cbc4634dc7789b6bc804fbdae0391016104b8565b60006a636f6e736f6c652e6c6f679050600080835160208501845afa505050565b6109658161093b565b50565b610308848484846040516024016109829493929190610ad1565b60408051601f198184030181529190526020810180516001600160e01b03166348e8889760e11b17905261095c565b6109b9610b17565b565b6000602082840312156109cd57600080fd5b5035919050565b6000602082840312156109e657600080fd5b81356001600160a01b03811681146109fd57600080fd5b9392505050565b6000815180845260005b81811015610a2a57602081850181015186830182015201610a0e565b506000602082860101526020601f19601f83011685010191505092915050565b608081526000610a5d6080830187610a04565b8560208401528281036040840152610a758186610a04565b91505060018060a01b038316606083015295945050505050565b634e487b7160e01b600052601160045260246000fd5b81810381811115610ab857610ab8610a8f565b92915050565b80820180821115610ab857610ab8610a8f565b608081526000610ae46080830187610a04565b6001600160a01b03861660208401528281036040840152610b058186610a04565b91505082606083015295945050505050565b634e487b7160e01b600052605160045260246000fdfea26469706673582212202643976114cb667be13726019d2fcc742a8a00e3da942396e8aca1d495c1f63264736f6c63430008140033537562736372697074696f6e436f6e7472616374206465706c6f7965642062793a",
  "devdoc": {
    "author": "BuidlGuidl",
    "kind": "dev",
    "methods": {},
    "version": 1
  },
  "userdoc": {
    "kind": "user",
    "methods": {
      "cancelSubscription()": {
        "notice": "Function to cancel subscription No refund - subscription remains valid until cancellation"
      },
      "getBalance()": {
        "notice": "Get contract balance"
      },
      "getSubscriptionTime(address)": {
        "notice": "Get subscription timestamp for a user"
      },
      "isUserSubscribed(address)": {
        "notice": "Check if an address is subscribed"
      },
      "setSubscriptionPrice(uint256)": {
        "notice": "Owner function to update subscription price"
      },
      "subscribe()": {
        "notice": "Function to subscribe to the service Requires exactly 1 ROSE token payment"
      },
      "withdraw()": {
        "notice": "Owner function to withdraw collected subscription fees"
      }
    },
    "notice": "A smart contract that handles subscription payments in ROSE tokens Users pay 1 ROSE token to subscribe to the service",
    "version": 1
  },
  "storageLayout": {
    "storage": [
      {
        "astId": 8,
        "contract": "contracts/SubscriptionContract.sol:SubscriptionContract",
        "label": "subscriptionPrice",
        "offset": 0,
        "slot": "0",
        "type": "t_uint256"
      },
      {
        "astId": 11,
        "contract": "contracts/SubscriptionContract.sol:SubscriptionContract",
        "label": "totalSubscribers",
        "offset": 0,
        "slot": "1",
        "type": "t_uint256"
      },
      {
        "astId": 15,
        "contract": "contracts/SubscriptionContract.sol:SubscriptionContract",
        "label": "subscribers",
        "offset": 0,
        "slot": "2",
        "type": "t_mapping(t_address,t_bool)"
      },
      {
        "astId": 19,
        "contract": "contracts/SubscriptionContract.sol:SubscriptionContract",
        "label": "subscriptionTimestamp",
        "offset": 0,
        "slot": "3",
        "type": "t_mapping(t_address,t_uint256)"
      }
    ],
    "types": {
      "t_address": {
        "encoding": "inplace",
        "label": "address",
        "numberOfBytes": "20"
      },
      "t_bool": {
        "encoding": "inplace",
        "label": "bool",
        "numberOfBytes": "1"
      },
      "t_mapping(t_address,t_bool)": {
        "encoding": "mapping",
        "key": "t_address",
        "label": "mapping(address => bool)",
        "numberOfBytes": "32",
        "value": "t_bool"
      },
      "t_mapping(t_address,t_uint256)": {
        "encoding": "mapping",
        "key": "t_address",
        "label": "mapping(address => uint256)",
        "numberOfBytes": "32",
        "value": "t_uint256"
      },
      "t_uint256": {
        "encoding": "inplace",
        "label": "uint256",
        "numberOfBytes": "32"
      }
    }
  }
}