{
  "address": "0x390908d26f89de3E2847A16d5cDF44dB629CD4F3",
  "abi": [
    {
      "inputs": [
        {
          "internalType": "address",
          "name": "_owner",
          "type": "address"
        }
      ],
      "stateMutability": "nonpayable",
      "type": "constructor"
    },
    {
      "anonymous": false,
      "inputs": [
        {
          "indexed": true,
          "internalType": "address",
          "name": "oldFactory",
          "type": "address"
        },
        {
          "indexed": true,
          "internalType": "address",
          "name": "newFactory",
          "type": "address"
        }
      ],
      "name": "ContractFactoryUpdated",
      "type": "event"
    },
    {
      "anonymous": false,
      "inputs": [
        {
          "indexed": true,
          "internalType": "address",
          "name": "owner",
          "type": "address"
        },
        {
          "indexed": false,
          "internalType": "uint256",
          "name": "amount",
          "type": "uint256"
        },
        {
          "indexed": false,
          "internalType": "uint256",
          "name": "timestamp",
          "type": "uint256"
        }
      ],
      "name": "FundsWithdrawn",
      "type": "event"
    },
    {
      "anonymous": false,
      "inputs": [
        {
          "indexed": false,
          "internalType": "uint256",
          "name": "newPrice",
          "type": "uint256"
        },
        {
          "indexed": false,
          "internalType": "uint256",
          "name": "timestamp",
          "type": "uint256"
        }
      ],
      "name": "PriceUpdated",
      "type": "event"
    },
    {
      "anonymous": false,
      "inputs": [
        {
          "indexed": true,
          "internalType": "address",
          "name": "subscriber",
          "type": "address"
        },
        {
          "indexed": false,
          "internalType": "uint256",
          "name": "timestamp",
          "type": "uint256"
        }
      ],
      "name": "SubscriptionCancelled",
      "type": "event"
    },
    {
      "anonymous": false,
      "inputs": [
        {
          "indexed": true,
          "internalType": "address",
          "name": "subscriber",
          "type": "address"
        },
        {
          "indexed": false,
          "internalType": "uint256",
          "name": "amount",
          "type": "uint256"
        },
        {
          "indexed": false,
          "internalType": "uint256",
          "name": "timestamp",
          "type": "uint256"
        }
      ],
      "name": "SubscriptionPurchased",
      "type": "event"
    },
    {
      "anonymous": false,
      "inputs": [
        {
          "indexed": true,
          "internalType": "address",
          "name": "subscriber",
          "type": "address"
        },
        {
          "indexed": true,
          "internalType": "address",
          "name": "userContract",
          "type": "address"
        },
        {
          "indexed": false,
          "internalType": "uint256",
          "name": "timestamp",
          "type": "uint256"
        }
      ],
      "name": "UserContractCreated",
      "type": "event"
    },
    {
      "inputs": [],
      "name": "cancelSubscription",
      "outputs": [],
      "stateMutability": "nonpayable",
      "type": "function"
    },
    {
      "inputs": [],
      "name": "contractFactory",
      "outputs": [
        {
          "internalType": "address",
          "name": "",
          "type": "address"
        }
      ],
      "stateMutability": "view",
      "type": "function"
    },
    {
      "inputs": [],
      "name": "getBalance",
      "outputs": [
        {
          "internalType": "uint256",
          "name": "",
          "type": "uint256"
        }
      ],
      "stateMutability": "view",
      "type": "function"
    },
    {
      "inputs": [
        {
          "internalType": "address",
          "name": "_user",
          "type": "address"
        }
      ],
      "name": "getSubscriptionCount",
      "outputs": [
        {
          "internalType": "uint256",
          "name": "",
          "type": "uint256"
        }
      ],
      "stateMutability": "view",
      "type": "function"
    },
    {
      "inputs": [
        {
          "internalType": "address",
          "name": "_user",
          "type": "address"
        }
      ],
      "name": "getSubscriptionTime",
      "outputs": [
        {
          "internalType": "uint256",
          "name": "",
          "type": "uint256"
        }
      ],
      "stateMutability": "view",
      "type": "function"
    },
    {
      "inputs": [
        {
          "internalType": "address",
          "name": "_user",
          "type": "address"
        }
      ],
      "name": "isUserSubscribed",
      "outputs": [
        {
          "internalType": "bool",
          "name": "",
          "type": "bool"
        }
      ],
      "stateMutability": "view",
      "type": "function"
    },
    {
      "inputs": [],
      "name": "owner",
      "outputs": [
        {
          "internalType": "address",
          "name": "",
          "type": "address"
        }
      ],
      "stateMutability": "view",
      "type": "function"
    },
    {
      "inputs": [
        {
          "internalType": "address",
          "name": "_contractFactory",
          "type": "address"
        }
      ],
      "name": "setContractFactory",
      "outputs": [],
      "stateMutability": "nonpayable",
      "type": "function"
    },
    {
      "inputs": [
        {
          "internalType": "uint256",
          "name": "_newPrice",
          "type": "uint256"
        }
      ],
      "name": "setSubscriptionPrice",
      "outputs": [],
      "stateMutability": "nonpayable",
      "type": "function"
    },
    {
      "inputs": [],
      "name": "subscribe",
      "outputs": [],
      "stateMutability": "payable",
      "type": "function"
    },
    {
      "inputs": [
        {
          "internalType": "address",
          "name": "",
          "type": "address"
        }
      ],
      "name": "subscribers",
      "outputs": [
        {
          "internalType": "bool",
          "name": "",
          "type": "bool"
        }
      ],
      "stateMutability": "view",
      "type": "function"
    },
    {
      "inputs": [
        {
          "internalType": "address",
          "name": "",
          "type": "address"
        }
      ],
      "name": "subscriptionCount",
      "outputs": [
        {
          "internalType": "uint256",
          "name": "",
          "type": "uint256"
        }
      ],
      "stateMutability": "view",
      "type": "function"
    },
    {
      "inputs": [],
      "name": "subscriptionPrice",
      "outputs": [
        {
          "internalType": "uint256",
          "name": "",
          "type": "uint256"
        }
      ],
      "stateMutability": "view",
      "type": "function"
    },
    {
      "inputs": [
        {
          "internalType": "address",
          "name": "",
          "type": "address"
        }
      ],
      "name": "subscriptionTimestamp",
      "outputs": [
        {
          "internalType": "uint256",
          "name": "",
          "type": "uint256"
        }
      ],
      "stateMutability": "view",
      "type": "function"
    },
    {
      "inputs": [],
      "name": "totalSubscribers",
      "outputs": [
        {
          "internalType": "uint256",
          "name": "",
          "type": "uint256"
        }
      ],
      "stateMutability": "view",
      "type": "function"
    },
    {
      "inputs": [],
      "name": "withdraw",
      "outputs": [],
      "stateMutability": "nonpayable",
      "type": "function"
    },
    {
      "stateMutability": "payable",
      "type": "receive"
    }
  ],
  "transactionHash": "0x11f04eaf016eadb0a987472bf7f3d70e7c08891dd5101fa97a67893217b5a147",
  "args": [
    "0x0020cE4969A6Ec50885E083784A495483Db7A62c"
  ],
  "numDeployments": 2,
  "solcInputHash": "14fe59eb59231d721e7554ea36d87a87",
  "bytecode": "0x60a0604052670de0b6b3a764000060005560006001553480156200002257600080fd5b50604051620012223803806200122283398101604081905262000045916200010a565b6001600160a01b03811660805260408051606081019091526021808252620000789190620012016020830139826200007f565b506200019e565b620000cc8282604051602401620000989291906200013c565b60408051601f198184030181529190526020810180516001600160e01b0390811663319af33360e01b17909152620000d016565b5050565b620000e681620000e960201b62000c861760201c565b50565b60006a636f6e736f6c652e6c6f679050600080835160208501845afa505050565b6000602082840312156200011d57600080fd5b81516001600160a01b03811681146200013557600080fd5b9392505050565b604081526000835180604084015260005b818110156200016c57602081870181015160608684010152016200014d565b50600060608285018101919091526001600160a01b03949094166020840152601f01601f191690910190910192915050565b608051611024620001dd600039600081816102e801528181610408015281816105a001528181610626015281816106f00152610b3201526110246000f3fe6080604052600436106100f75760003560e01c80637c7acba61161008a578063abf0eb5011610059578063abf0eb5014610312578063bd94f4311461034b578063bdc8e54c1461036b578063d8d9f7401461038157600080fd5b80637c7acba61461027e57806385fdba24146102b65780638da5cb5b146102d65780638f449a051461030a57600080fd5b806332d350f6116100c657806332d350f6146101c65780633ccfd60b146101fc5780635745ae2814610211578063714999691461025157600080fd5b806312065fe01461015957806315e2475f1461017b5780631a5ee7791461019157806324e9edb0146101b157600080fd5b3661015457610152604051806040016040528060158152602001742932b1b2b4bb32b2102927a9a2903a37b5b2b7399d60591b8152503460405180604001604052806005815260200164333937b69d60d91b815250336103ae565b005b600080fd5b34801561016557600080fd5b50475b6040519081526020015b60405180910390f35b34801561018757600080fd5b5061016860015481565b34801561019d57600080fd5b506101526101ac366004610d98565b6103fd565b3480156101bd57600080fd5b506101526104de565b3480156101d257600080fd5b506101686101e1366004610dc6565b6001600160a01b031660009081526005602052604090205490565b34801561020857600080fd5b50610152610595565b34801561021d57600080fd5b5061024161022c366004610dc6565b60036020526000908152604090205460ff1681565b6040519015158152602001610172565b34801561025d57600080fd5b5061016861026c366004610dc6565b60056020526000908152604090205481565b34801561028a57600080fd5b5060025461029e906001600160a01b031681565b6040516001600160a01b039091168152602001610172565b3480156102c257600080fd5b506101686102d1366004610dc6565b610740565b3480156102e257600080fd5b5061029e7f000000000000000000000000000000000000000000000000000000000000000081565b6101526107ba565b34801561031e57600080fd5b5061024161032d366004610dc6565b6001600160a01b031660009081526003602052604090205460ff1690565b34801561035757600080fd5b50610152610366366004610dc6565b610b27565b34801561037757600080fd5b5061016860005481565b34801561038d57600080fd5b5061016861039c366004610dc6565b60046020526000908152604090205481565b6103f7848484846040516024016103c89493929190610e30565b60408051601f198184030181529190526020810180516001600160e01b0316631f118ca960e21b179052610ca7565b50505050565b336001600160a01b037f0000000000000000000000000000000000000000000000000000000000000000161461044e5760405162461bcd60e51b815260040161044590610e75565b60405180910390fd5b6000811161049e5760405162461bcd60e51b815260206004820152601c60248201527f5072696365206d7573742062652067726561746572207468616e2030000000006044820152606401610445565b6000819055604080518281524260208201527f945c1c4e99aa89f648fbfe3df471b916f719e16d960fcec0737d4d56bd696838910160405180910390a150565b3360009081526003602052604090205460ff1661052e5760405162461bcd60e51b815260206004820152600e60248201526d139bdd081cdd589cd8dc9a58995960921b6044820152606401610445565b336000908152600360205260408120805460ff191690556001805490918291610558908390610eb2565b909155505060405142815233907f06aa12c0ad65927b4a753d119c26e490d3c4a4e11cb631b43131a709dc1e5917906020015b60405180910390a2565b336001600160a01b037f000000000000000000000000000000000000000000000000000000000000000016146105dd5760405162461bcd60e51b815260040161044590610e75565b47806106225760405162461bcd60e51b81526020600482015260146024820152734e6f2066756e647320746f20776974686472617760601b6044820152606401610445565b60007f00000000000000000000000000000000000000000000000000000000000000006001600160a01b03168260405160006040518083038185875af1925050503d806000811461068f576040519150601f19603f3d011682016040523d82523d6000602084013e610694565b606091505b50509050806106d95760405162461bcd60e51b815260206004820152601160248201527015da5d1a191c985dd85b0819985a5b1959607a1b6044820152606401610445565b604080518381524260208201526001600160a01b037f000000000000000000000000000000000000000000000000000000000000000016917ffbc3a599b784fe88772fc5abcc07223f64ca0b13acc341f4fb1e46bef0510eb4910160405180910390a25050565b6001600160a01b03811660009081526003602052604081205460ff1661079e5760405162461bcd60e51b8152602060048201526013602482015272155cd95c881b9bdd081cdd589cd8dc9a589959606a1b6044820152606401610445565b506001600160a01b031660009081526004602052604090205490565b6000543410156108205760405162461bcd60e51b815260206004820152602b60248201527f496e73756666696369656e74207061796d656e743a203120524f534520746f6b60448201526a195b881c995c5d5a5c995960aa1b6064820152608401610445565b610879604051806040016040528060168152602001752732bb9039bab139b1b934b83a34b7b710333937b69d60511b815250336040518060400160405280600781526020016620b6b7bab73a1d60c91b81525034610cb3565b3360009081526003602052604090205460ff166108a85760018060008282546108a29190610ecb565b90915550505b336000908152600360209081526040808320805460ff1916600190811790915560048352818420429055600590925282208054919290916108ea908490610ecb565b90915550506002546001600160a01b031615610a47576002543360008181526005602052604090819020549051630876f27d60e31b8152600481019290925260248201526001600160a01b03909116906343b793e8906044016020604051808303816000875af192505050801561097e575060408051601f3d908101601f1916820190925261097b91810190610ede565b60015b6109a9576109a4604051806060016040528060238152602001610fcc6023913933610cfc565b610a47565b610a056040518060400160405280601a81526020017f43726561746564207573657220636f6e747261637420666f723a000000000000815250336040518060400160405280600381526020016230ba1d60e91b81525084610d45565b6040514281526001600160a01b0382169033907fe44bc4b3ad1f9e95bc1b28df73be7fcba943830141ed75814b505c258fc1c3fe9060200160405180910390a3505b600054341115610aed5760008054610a5f9034610eb2565b604051909150600090339083908381818185875af1925050503d8060008114610aa4576040519150601f19603f3d011682016040523d82523d6000602084013e610aa9565b606091505b5050905080610aea5760405162461bcd60e51b815260206004820152600d60248201526c1499599d5b990819985a5b1959609a1b6044820152606401610445565b50505b6000546040805191825242602083015233917f6d458fa94cc5b30d7877bed127c2029f98bc0cbc4634dc7789b6bc804fbdae03910161058b565b336001600160a01b037f00000000000000000000000000000000000000000000000000000000000000001614610b6f5760405162461bcd60e51b815260040161044590610e75565b6001600160a01b038116610bc55760405162461bcd60e51b815260206004820152601760248201527f496e76616c696420666163746f727920616464726573730000000000000000006044820152606401610445565b600280546001600160a01b038381166001600160a01b0319831617909255604080518082018252601e81527f5570646174656420636f6e747261637420666163746f72792066726f6d3a0000602080830191909152825180840190935260038352623a379d60e91b908301529290911691610c4291839085610d45565b816001600160a01b0316816001600160a01b03167f6fa1edaa9db815d7ca84d061c00e104ea737f1968d95dcef3ddbe7e82fe32f6360405160405180910390a35050565b60006a636f6e736f6c652e6c6f679050600080835160208501845afa505050565b610cb081610c86565b50565b6103f784848484604051602401610ccd9493929190610efb565b60408051601f198184030181529190526020810180516001600160e01b03166348e8889760e11b179052610ca7565b610d418282604051602401610d12929190610f41565b60408051601f198184030181529190526020810180516001600160e01b031663319af33360e01b179052610ca7565b5050565b6103f784848484604051602401610d5f9493929190610f6b565b60408051601f198184030181529190526020810180516001600160e01b031663aabc9a3160e01b179052610ca7565b610d96610fb5565b565b600060208284031215610daa57600080fd5b5035919050565b6001600160a01b0381168114610cb057600080fd5b600060208284031215610dd857600080fd5b8135610de381610db1565b9392505050565b6000815180845260005b81811015610e1057602081850181015186830182015201610df4565b506000602082860101526020601f19601f83011685010191505092915050565b608081526000610e436080830187610dea565b8560208401528281036040840152610e5b8186610dea565b91505060018060a01b038316606083015295945050505050565b6020808252600d908201526c2737ba103a34329027bbb732b960991b604082015260600190565b634e487b7160e01b600052601160045260246000fd5b81810381811115610ec557610ec5610e9c565b92915050565b80820180821115610ec557610ec5610e9c565b600060208284031215610ef057600080fd5b8151610de381610db1565b608081526000610f0e6080830187610dea565b6001600160a01b03861660208401528281036040840152610f2f8186610dea565b91505082606083015295945050505050565b604081526000610f546040830185610dea565b905060018060a01b03831660208301529392505050565b608081526000610f7e6080830187610dea565b6001600160a01b0386811660208501528382036040850152610fa08287610dea565b92508085166060850152505095945050505050565b634e487b7160e01b600052605160045260246000fdfe4661696c656420746f20637265617465207573657220636f6e747261637420666f723aa2646970667358221220b7d186680f44f071157adc2c6f4db36eff95402713045fa9124023be6c032cd664736f6c63430008140033537562736372697074696f6e436f6e7472616374206465706c6f7965642062793a",
  "devdoc": {
    "author": "BuidlGuidl",
    "kind": "dev",
    "methods": {},
    "version": 1
  },
  "userdoc": {
    "kind": "user",
    "methods": {
      "cancelSubscription()": {
        "notice": "Function to cancel subscription No refund - subscription remains valid until cancellation"
      },
      "getBalance()": {
        "notice": "Get contract balance"
      },
      "getSubscriptionCount(address)": {
        "notice": "Get subscription count for a user"
      },
      "getSubscriptionTime(address)": {
        "notice": "Get subscription timestamp for a user"
      },
      "isUserSubscribed(address)": {
        "notice": "Check if an address is subscribed"
      },
      "setContractFactory(address)": {
        "notice": "Set contract factory address Only callable by owner"
      },
      "setSubscriptionPrice(uint256)": {
        "notice": "Owner function to update subscription price"
      },
      "subscribe()": {
        "notice": "Function to subscribe to the service Users can subscribe multiple times to extend their subscription Requires exactly 1 ROSE token payment per subscription"
      },
      "withdraw()": {
        "notice": "Owner function to withdraw collected subscription fees"
      }
    },
    "notice": "A smart contract that handles subscription payments in ROSE tokens Users pay 1 ROSE token to subscribe to the service",
    "version": 1
  },
  "storageLayout": {
    "storage": [
      {
        "astId": 9169,
        "contract": "contracts/SubscriptionContract.sol:SubscriptionContract",
        "label": "subscriptionPrice",
        "offset": 0,
        "slot": "0",
        "type": "t_uint256"
      },
      {
        "astId": 9172,
        "contract": "contracts/SubscriptionContract.sol:SubscriptionContract",
        "label": "totalSubscribers",
        "offset": 0,
        "slot": "1",
        "type": "t_uint256"
      },
      {
        "astId": 9174,
        "contract": "contracts/SubscriptionContract.sol:SubscriptionContract",
        "label": "contractFactory",
        "offset": 0,
        "slot": "2",
        "type": "t_address"
      },
      {
        "astId": 9178,
        "contract": "contracts/SubscriptionContract.sol:SubscriptionContract",
        "label": "subscribers",
        "offset": 0,
        "slot": "3",
        "type": "t_mapping(t_address,t_bool)"
      },
      {
        "astId": 9182,
        "contract": "contracts/SubscriptionContract.sol:SubscriptionContract",
        "label": "subscriptionTimestamp",
        "offset": 0,
        "slot": "4",
        "type": "t_mapping(t_address,t_uint256)"
      },
      {
        "astId": 9186,
        "contract": "contracts/SubscriptionContract.sol:SubscriptionContract",
        "label": "subscriptionCount",
        "offset": 0,
        "slot": "5",
        "type": "t_mapping(t_address,t_uint256)"
      }
    ],
    "types": {
      "t_address": {
        "encoding": "inplace",
        "label": "address",
        "numberOfBytes": "20"
      },
      "t_bool": {
        "encoding": "inplace",
        "label": "bool",
        "numberOfBytes": "1"
      },
      "t_mapping(t_address,t_bool)": {
        "encoding": "mapping",
        "key": "t_address",
        "label": "mapping(address => bool)",
        "numberOfBytes": "32",
        "value": "t_bool"
      },
      "t_mapping(t_address,t_uint256)": {
        "encoding": "mapping",
        "key": "t_address",
        "label": "mapping(address => uint256)",
        "numberOfBytes": "32",
        "value": "t_uint256"
      },
      "t_uint256": {
        "encoding": "inplace",
        "label": "uint256",
        "numberOfBytes": "32"
      }
    }
  }
}